:100000000C94B5000C94D2000C94D2000C94D20045
:100010000C94D2000C94D2000C94D2000C94D20018
:100020000C94D2000C94D2000C94D2000C94D20008
:100030000C94D2000C94D2000C9444020C94D20084
:100040000C94D2000C94D2000C94D2000C94D200E8
:100050000C94D2000C94D2000C94D2000C94D200D8
:100060000C94D2000C94D2006E616E00696E660032
:1000700000407A10F35A00A0724E18090010A5D45F
:10008000E80000E87648170000E40B54020000CABC
:100090009A3B000000E1F505000080969800000002
:1000A00040420F000000A086010000001027000061
:1000B0000000E803000000006400000000000A00E7
:1000C000000000000100000000002C76D888DC67EA
:1000D0004F0823DFC1DFAE59E1B1B796E5E3E45342
:1000E000C63AE651997696E8E6C28426EB898C9B5F
:1000F00062ED407C6FFCEFBC9C9F40F2BAA56FA5FF
:10010000F490055A2AF75C936B6CF9676DC11BFC80
:10011000E0E40D47FEF520E6B500D0ED902E03009B
:10012000943577050080841E080000204E0A0000E8
:1001300000C80C333333330F986E12831141EF8DA7
:100140002114893BE65516CFFEE6DB18D1844B38E7
:100150001BF77C1D901DA4BBE424203284725E2218
:100160008100C9F124ECA1E53D2711241FBECFEF8A
:10017000D8E0DEBFCDBF11E0A0E0B1E0E4EFF9E1EF
:1001800002C005900D92AC37B107D9F722E0ACE779
:10019000B1E001C01D92A032B207E1F70E94D3087E
:1001A0000C94F80C0C9400008A3049F09091C00037
:1001B00095FFFCCF8093C60080E090E00895909179
:1001C000C00095FFFCCF9DE09093C600EFCFA4EE5A
:1001D000B1E081E18C93E4ECF1E047EB51E060E0C9
:1001E00070E0408351836283738383E111968C9323
:1001F000119745EA51E060E070E0448355836683DF
:10020000778385E112968C93129741E951E060E083
:1002100070E0408751876287738787E113968C93DC
:1002200013974CE751E060E070E04487558766879C
:1002300077878EE114968C93149747E251E060E043
:1002400070E0408B518B628B738B81E215968C939F
:1002500015974EEF50E060E070E0448B558B668B55
:10026000778B84E216968C93169742ED50E060E00F
:1002700070E0408F518F628F738F88E217968C9356
:1002800085E990E0A0E0B0E0848F958FA68FB78FCE
:10029000089540E165E081E00E94830468E070E039
:1002A0008AEF0E9410058BE00E94F904549A559A37
:1002B0000E94370580E091E090931D0280931C021C
:1002C0007894089580E04091ED015091EE016091A5
:1002D000EF017091F00149355E4F6105710508F439
:1002E0008FC081E090E04091F1015091F201609166
:1002F000F3017091F401403559416140710528F0D6
:100300008F5F91E082300CF081C04091F5015091F7
:10031000F6016091F7017091F80140395B4061404E
:10032000710528F08F5F92E082300CF06FC0409131
:10033000F9015091FA016091FB017091FC01403D7F
:100340005E4E6105710528F08F5F93E082300CF0FE
:100350005DC080E04091FD015091FE016091FF0180
:10036000709100024537514F6105710508F04AC090
:100370002FEF4091010250910202609103027091AF
:1003800004024F3B5B4B6105710520F08F5F8230AB
:10039000E4F521E0409105025091060260910702C8
:1003A00070910802463B50416140710528F08F5F13
:1003B00082300CF041C022E04091090250910A02C3
:1003C00060910B0270910C02443C5B4B610571051E
:1003D00018F18F5F823074F58093110284E080936E
:1003E000EC019F3FB9F023E084E09802F001112472
:1003F000E20FF11D27FDFA95E25FFE4F808108951F
:100400009FEF71CF81E020E0B4CF91E080931102A3
:100410009093EC0185E408958093110284E0809329
:10042000EC019F3F19F02F3FA9F3DECF2F3F91F74B
:1004300083E5089593E0EACF92E0E8CF9091BE0182
:10044000992391F0913019F48335D9F008951F92D2
:100450009F9389E791E09F938F930E944D0C0F909B
:100460000F900F900F900895833581F3853471F3C9
:10047000082E000C990B0E94630C81E08093BE0152
:1004800008951092BE0108951F920F920FB60F9219
:1004900011242F923F924F925F926F927F928F9290
:1004A0009F92AF92BF92CF92DF92EF92FF920F9303
:1004B0001F932F933F934F935F936F937F938F93EC
:1004C0009F93AF93BF93EF93FF93CF93DF93CDB7FA
:1004D000DEB72F97DEBFCDBF5C9A0E94EC048D87FC
:1004E0000E94F3048D85E82FF0E08090AE0190909B
:1004F000AF012091C4013091C5014091C6015091D6
:10050000C701D4010E94DD0ABB2797FDBA95A92F28
:10051000982F872FBF01680F791F80919E019091BE
:100520009F019B01281B390B3A83298390929F01DD
:1005300080929E013093AF012093AE01A090B00154
:10054000B090B1012091C8013091C9014091CA0118
:100550005091CB01D5010E94DD0ABB2797FDBA95CA
:10056000A92F982F872FBF01680F791F8091A001B5
:100570009091A1019B01281B390B3C832B83B092E6
:10058000A101A092A0013093B1012093B001C090CD
:10059000B201D090B3012091CC013091CD014091B6
:1005A000CE015091CF01D6010E94DD0ABB2797FDF5
:1005B000BA95A92F982F872FBF01680F791F8091B7
:1005C000A2019091A3019B01281B390B3E832D832F
:1005D000D092A301C092A2013093B3012093B20143
:1005E000E090B401F090B5012091D0013091D1019B
:1005F0004091D2015091D301D7010E94DD0ABB275F
:1006000097FDBA95A92F982F872FBF01680F791FE3
:100610008091A4019091A5019B01281B390B38877B
:100620002F83F092A501E092A4013093B5012093AD
:10063000B4010091B6011091B7012091D40130911D
:10064000D5014091D6015091D701D8010E94DD0A11
:10065000BB2797FDBA95A92F982F872FBF01680F49
:10066000791F8091A6019091A7019B01281B390B4E
:100670003A8729871093A7010093A6013093B70109
:100680002093B6016090B8017090B9012091D80113
:100690003091D9014091DA015091DB01D3010E94E0
:1006A000DD0ABB2797FDBA95A92F982F872FBF0189
:1006B000680F791F8091A8019091A9019B01281BC7
:1006C000390B3C872B877092A9016092A801309367
:1006D000B9012093B8014090BA015090BB0120911C
:1006E000DC013091DD014091DE015091DF01D2014A
:1006F0000E94DD0ABB2797FDBA95A92F982F872F57
:10070000BF01680F791F8091AA019091AB011B0175
:10071000281A390A5092AB014092AA013092BB01CB
:100720002092BA018091BC019091BD019F878E8774
:100730002091E0013091E1014091E2015091E3010B
:10074000DC010E94DD0ABB2797FDBA95A92F982FDF
:10075000872FE80FF91F8091AC019091AD01E81B44
:10076000F90B2E853F853093AD012093AC01F093BA
:10077000BD01E093BC018091BF018F5F8093BF01F9
:10078000853C09F096C089819A8190938D01809370
:100790008C011092AF011092AE012B813C813093FD
:1007A0008F0120938E011092B1011092B0018D81C2
:1007B0009E8190939101809390011092B3011092C9
:1007C000B2012F81388530939301209392011092CA
:1007D000B5011092B40189859A8590939501809313
:1007E00094011092B7011092B6012B853C8530938D
:1007F0009701209396011092B9011092B80130929E
:100800009901209298011092BB011092BA01F093C5
:100810009B01E0939A011092BD011092BC0190924D
:100820007D0180927C0110929F0110929E01B092F6
:100830007F01A0927E011092A1011092A001D0929E
:100840008101C09280011092A3011092A201F09246
:100850008301E09282011092A5011092A4011093ED
:100860008501009384011092A7011092A601709255
:100870008701609286011092A9011092A8015092FE
:100880008901409288011092AB011092AA018E85D5
:100890009F8590938B0180938A011092AD011092F5
:1008A000AC011092BF0181E090E090939D01809394
:1008B0009C015C982F960FB6F894DEBF0FBECDBF9B
:1008C000DF91CF91FF91EF91BF91AF919F918F9168
:1008D0007F916F915F914F913F912F911F910F9158
:1008E000FF90EF90DF90CF90BF90AF909F908F9050
:1008F0007F906F905F904F903F902F900F900FBE22
:100900000F901F901895803120F590E0FC01EC5A73
:10091000FE4F2081FC01EC59FE4F808180626630E1
:10092000E0F4E62FF0E0E25BFE4F30814031C1F0B1
:100930004131F8F04034F1F1403851F1403281F466
:1009400095E8832B80937C0090937A0020937E001F
:10095000089585E22FE1663020F330E4403141F71D
:1009600094E8832B80937C0090937A0020937E0000
:100970000895443041F14830A1F0423089F791E8C0
:10098000832B80937C0090937A0020937E000895BF
:1009900097E8832B80937C0090937A0020937E00CD
:1009A000089593E8832B80937C0090937A002093A2
:1009B0007E00089596E8832B80937C0090937A00C4
:1009C00020937E00089592E8832B80937C0090937F
:1009D0007A0020937E00089580917A0086FDFCCFF6
:1009E000809179000895EAE7F0E080818064808357
:1009F0000895833041F0239A83E88093B00081E02A
:100A00008093B1000895539A83E28093B00081E00F
:100A10008093B10008958093B3008093B40008954B
:100A200092E094BD90936E0087BD60347105E1F053
:100A300040F461307105A9F06830710561F495BD2D
:100A40000895611581E0780749F06115744019F443
:100A500085E085BD089582E085BD089584E085BD6B
:100A6000089581E085BD089583E085BD089588E0FF
:100A700090E09093C5008093C4001092C00088E17C
:100A80008093C10008958091C00087FFFCCF8091C2
:100A9000C60008958091C000881F8827881F089588
:100AA0009091C00095FFFCCF8093C6000895A3E10C
:100AB000B0E0EDE5F5E00C94E50A6C014B012A018C
:100AC000FC0117821682838181FF43C3AE014F5F11
:100AD0005F4F3A01F6019381F40193FD859193FFF5
:100AE00081914F01882309F430C3853239F493FD95
:100AF000859193FF81914F01853239F4B60190E0E1
:100B00000E94150C52012501E5CF10E0F12C20E0E8
:100B10002032A0F48B3269F030F4803259F0833205
:100B200069F420612CC08D3239F0803339F42160B2
:100B300026C02260246023C0286021C027FD27C072
:100B400030ED380F3A3078F426FF06C0FAE01F9FE8
:100B5000300D1124132F13C04AE0F49E300D1124E0
:100B6000F32E20620CC08E3221F426FDEEC22064EA
:100B700006C08C3611F4206802C0883641F4F401B6
:100B800093FD859193FF81914F018111C1CF9BEB23
:100B9000980F933018F42061805E06C09BE9980F8F
:100BA000933008F071C12F7E26FF16E02F73322E8E
:100BB000853619F42064322E08C0863621F4F22FCF
:100BC000F0683F2E02C01111115037FE07C01C33D0
:100BD00050F4EE24E394E10E27E00BC0183038F017
:100BE00027E017E005C027E04CE3E42E02C0212FE8
:100BF000E12C520144E0A40EB11CF201608171812C
:100C0000828193810E2DA3010E94270B2C01098163
:100C100000FF02C003FF07C031FC08C032FE09C05C
:100C200030E2232E07C02DE2222E04C09BE2292EA3
:100C300001C0212C802F8C7019F0211068C2A8C22D
:100C400037FE0FC0E40C04FF04C08A81813309F42D
:100C5000EA941E1474F5F8E0FE1578F588E0E82EA5
:100C60002CC036FC2AC0812F90E0841595059CF09D
:100C70002CEF42162FEF520674F0432D4068342EAD
:100C80000AC0E2E0F0E0EC0FFD1FE10FF11D8081F2
:100C9000803319F411501111F4CF37FE0EC0EE2439
:100CA000E394E10E812F90E0481659062CF41419B4
:100CB00004C0EE24E39401C010E037FE06C0141413
:100CC000150434F4C201019605C085E090E002C02D
:100CD00081E090E021100196112331F0212F30E0C6
:100CE0002F5F3F4F820F931F2F2D30E08217930706
:100CF00014F4F81A01C0F12C832D897049F4FF20F7
:100D000039F0B60180E290E00E94150CFA94F7CF1A
:100D1000222029F0B601822D90E00E94150C33FCB0
:100D200009C0FF2039F0B60180E390E00E94150C65
:100D3000FA94F7CF37FE5AC0942D852D57FE02C086
:100D400090E080E0292E382E20E030E0A2014E19FC
:100D500051095D874C87A201421953095F874E876D
:100D6000612F70E044275527461B570B598B488B42
:100D70005FEF2516350649F4B6018EE290E02A8B26
:100D80003B8B0E94150C3B892A89421453046CF05A
:100D90004C855D854215530544F4EE85FF85E20FD1
:100DA000F31FE60DF71D818101C080E351E0251A94
:100DB00031082F5F3F4F48895989241635064CF07A
:100DC000B60190E02A8B3B8B0E94150C2A893B8947
:100DD000CFCF2414350439F49A81963318F495331F
:100DE00011F404FF81E3B60190E04BC08A818133A6
:100DF00009F00F7EB60190E00E94150C111105C09C
:100E000034FC18C085E690E017C0B6018EE290E091
:100E10000E94150C82E0EE24E394E80EF301E80F43
:100E2000F11D8081B60190E00E94150C11508E2DAD
:100E300091F7E6CF85E490E0B6010E94150C57FCCF
:100E400005C04114510439F404FF05C05194419484
:100E500051088DE201C08BE2B60190E00E94150CB2
:100E600080E39AE0491651042CF08F5F5AE0451A4E
:100E70005108F7CFB60190E00E94150CB601C201EF
:100E8000C0960E94150C57C1833631F0833779F034
:100E9000833509F058C021C05201E2E0AE0EB11C0A
:100EA000F2018081898301E010E0230114C0520126
:100EB000F2E0AF0EB11CF2014080518026FF03C06A
:100EC000612F70E002C06FEF7FEFC2012A8B0E949A
:100ED0000A0C8C012A892F7715C05201F2E0AF0E5F
:100EE000B11CF2014080518026FF03C0612F70E0E9
:100EF00002C06FEF7FEFC2012A8B0E94FF0B8C01B3
:100F00002A892068322E23FD1AC08F2D90E0081701
:100F10001907A8F4B60180E290E00E94150CFA943B
:100F2000F4CFF20137FC859137FE81912F01B60194
:100F300090E00E94150CF110FA940150110901156E
:100F4000110579F7F8C0843611F0893659F5520148
:100F500027FF09C0F4E0AF0EB11CF201608171817E
:100F6000828193810AC0F2E0AF0EB11CF201608170
:100F70007181072E000C880B990B2F76322E97FF6C
:100F800009C090958095709561957F4F8F4F9F4FC9
:100F90002068322E2AE030E0A3010E949A0CE82E4D
:100FA000E6183FC0022F853721F40F7E2AE030E09B
:100FB0001DC0097F8F3691F018F4883559F0C5C0EF
:100FC000803719F0883711F0C0C0006104FF09C0F4
:100FD000046007C024FF08C0066006C028E030E0B7
:100FE00005C020E130E002C020E132E0520107FFFD
:100FF00009C0F4E0AF0EB11CF20160817181828101
:10100000938108C0F2E0AF0EB11CF20160817181E2
:1010100080E090E0A3010E949A0CE82EE6180F777A
:10102000302E36FE0BC0332D3E7FE11650F434FED9
:101030000AC032FC08C0332D3E7E05C00E2D332D74
:1010400003C00E2D01C0012F34FF0CC0FE01EE0DB8
:10105000F11D8081803311F4397E08C032FF05C054
:101060000E5F04C0832F867809F00F5F33FD13C035
:1010700030FF06C01E2D0F1518F41F0D101B0F2D6D
:101080000F1568F4B60180E290E03B8B0E94150CCE
:101090000F5F3B89F5CF0F1510F4F01A01C0F12C4A
:1010A00034FF12C0B60180E390E03B8B0E94150C28
:1010B0003B8932FF17C031FD03C088E790E002C0D2
:1010C00088E590E0B6010CC0832F867859F031FF97
:1010D00002C08BE201C080E237FD8DE2B60190E0F4
:1010E0000E94150CE11638F4B60180E390E00E94EE
:1010F000150C1150F7CFEA94F301EE0DF11D80812C
:10110000B60190E00E94150CE110F5CF14C0F4E098
:10111000FF1558F584E0F81A33FE1EC0211026C0D2
:1011200003FF2AC008E610E0F32DF0713F2EF8010E
:101130008491811124C0FF2009F4E5CCB60180E23E
:1011400090E00E94150CFA94F6CFF6018681978103
:1011500026C08FEF9FEF23C0B60180E290E00E948F
:10116000150CFA94F110F8CFD9CFF12CB601822DDD
:1011700090E00E94150CD4CF0CE610E0D5CF3110D2
:101180008052B60190E00E94150C0F5F1F4FCFCF29
:1011900023E02F1510F483E0BECFF12CC1CF63966E
:1011A000E2E10C94010B0E94E7000E94490184E7F0
:1011B00091E00E946A0C11E0C9E7D1E080919C01A6
:1011C00090919D010197D1F75D9AA0908C01B0900C
:1011D0008D01E0917C01F0917D019501D5010E9486
:1011E000BF0A6B017C019F01DF010E94BF0AC60E8E
:1011F000D71EE81EF91E2091C4013091C50140910F
:10120000C6015091C701D5010E94DD0A272F382F52
:10121000492F552747FD5A95DF010E94DD0AC61A5E
:10122000D70AE80AF90AC092ED01D092EE01E092E5
:10123000EF01F092F001A0908E01B0908F01E0914B
:101240007E01F0917F019501D5010E94BF0A6B01DB
:101250007C019F01DF010E94BF0AC60ED71EE81E57
:10126000F91E2091C8013091C9014091CA015091E5
:10127000CB01D5010E94DD0A272F382F492F552792
:1012800047FD5A95DF010E94DD0AC61AD70AE80A0F
:10129000F90AC092F101D092F201E092F301F092CA
:1012A000F401A0909001B0909101E0918001F09143
:1012B00081019501D5010E94BF0A6B017C019F014C
:1012C000DF010E94BF0AC60ED71EE81EF91E20913C
:1012D000CC013091CD014091CE015091CF01D5018B
:1012E0000E94DD0A272F382F492F552747FD5A9591
:1012F000DF010E94DD0AC61AD70AE80AF90AC0927D
:10130000F501D092F601E092F701F092F801A09079
:101310009201B0909301E0918201F09183019501D7
:10132000D5010E94BF0A6B017C019F01DF010E9471
:10133000BF0AC60ED71EE81EF91E2091D0013091BB
:10134000D1014091D2015091D301D5010E94DD0A13
:10135000272F382F492F552747FD5A95DF010E9427
:10136000DD0AC61AD70AE80AF90AC092F901D09232
:10137000FA01E092FB01F092FC01A0909401B09080
:101380009501E0918401F09185019501D5010E94BC
:10139000BF0A6B017C019F01DF010E94BF0AC60EDC
:1013A000D71EE81EF91E2091D4013091D50140913D
:1013B000D6015091D701D5010E94DD0A272F382F81
:1013C000492F552747FD5A95DF010E94DD0AC61AAD
:1013D000D70AE80AF90AC092FD01D092FE01E09214
:1013E000FF01F0920002A0909601B0909701E09169
:1013F0008601F09187019501D5010E94BF0A6B011A
:101400007C019F01DF010E94BF0AC60ED71EE81EA5
:10141000F91E2091D8013091D9014091DA01509103
:10142000DB01D5010E94DD0A272F382F492F5527D0
:1014300047FD5A95DF010E94DD0AC61AD70AE80A5D
:10144000F90AC0920102D0920202E0920302F092E5
:101450000402A0909801B0909901E0918801F09168
:1014600089019501D5010E94BF0A6B017C019F0192
:10147000DF010E94BF0AC60ED71EE81EF91E20918A
:10148000DC013091DD014091DE015091DF01D50199
:101490000E94DD0A272F382F492F552747FD5A95DF
:1014A000DF010E94DD0AC61AD70AE80AF90AC092CB
:1014B0000502D0920602E0920702F0920802A09084
:1014C0009A01B0909B01E0918A01F0918B01950106
:1014D000D5010E94BF0A6B017C019F01DF010E94C0
:1014E000BF0AC60ED71EE81EF91E2091E0013091FA
:1014F000E1014091E2015091E301D5010E94DD0A32
:10150000272F382F492F552747FD5A95DF010E9475
:10151000DD0AC61AD70AE80AF90AC0920902D0926F
:101520000A02E0920B02F0920C020E94620190917A
:10153000BE01992351F09130A1F48335E9F0109266
:101540009D0110929C015D9839CE8335C1F385349D
:10155000B1F3082E000C990B0E94630C1093BE018E
:10156000EECF1F929F93DF93CF930E944D0C0F906D
:101570000F900F900F90E3CF1092BE01E0CF0E942A
:10158000C70A332312F48A1B9B0B0C94D80AA29F20
:10159000B001B39FC001A39F700D811D1124911D47
:1015A000B29F700D811D1124911D08950E94C70ADC
:1015B000B7FF0895821B930B0895B7FF0C941C0B83
:1015C0000E941C0B821B930B08952F923F924F9207
:1015D0005F926F927F928F929F92AF92BF92CF92C3
:1015E000DF92EF92FF920F931F93CF93DF93CDB7CC
:1015F000DEB7CA1BDB0B0FB6F894DEBF0FBECDBF44
:1016000009942A88398848885F846E847D848C8414
:101610009B84AA84B984C884DF80EE80FD800C811D
:101620001B81AA81B981CE0FD11D0FB6F894DEBF00
:101630000FBECDBFED0108950E94C70AA59F900D72
:10164000B49F900DA49F800D911D11240895283002
:1016500008F027E03327DA01990F311D87FD9160EB
:1016600000966105710539F432602E5F3D9330E3D9
:101670002A95E1F708959F3F30F0803871056105A4
:1016800009F03C5F3C5F3D93913008F08068911D0C
:10169000DF93CF931F930F93FF92EF92192F987FB1
:1016A0009695E92F96959695E90FFF27E653FF4FFC
:1016B00099273327EE24FF24A701E701059008941A
:1016C000079428F4360FE71EF81E491F511D660FB8
:1016D000771F881F991F0694A1F70590079428F497
:1016E000E70EF81E491F561FC11D770F881F991F4F
:1016F000661F0694A1F70590079428F4F80E491F79
:10170000561FC71FD11D880F991F661F771F06948C
:10171000A1F70590079420F4490F561FC71FD81F43
:10172000990F661F771F881F0694A9F7849110955B
:10173000177041F0D695C79557954795F794E7945C
:101740001A95C1F7E0E7F0E068941590159135918E
:101750006591959105907FE27395E118F10A430B2D
:10176000560BC90BD009C0F7E10CF11E431F561FE1
:10177000C91FD01D7EF4703311F48A95E6CFE8942A
:10178000015030F0080F0AF40027021708F4202F48
:101790002395022F7A3328F079E37D932A95E9F790
:1017A00010C07D932A9589F606949795679537958D
:1017B00017951794E118F10A430B560BC90BD00982
:1017C00098F023957E9173957A3308F070E37C93BB
:1017D0002013B8F77E9170617D9330F0839571E3AB
:1017E0007D9370E32A95E1F71124EF90FF900F911C
:1017F0001F91CF91DF91992787FD90950895FC0166
:101800000590615070400110D8F7809590958E0F2B
:101810009F1F0895FC016150704001900110D8F79E
:10182000809590958E0F9F1F08950F931F93CF93D0
:10183000DF93FB01238121FD03C08FEF9FEF28C0C1
:1018400022FF16C0468157812481358142175307F4
:1018500044F4A081B1819D012F5F3F4F31832083EC
:101860008C93268137812F5F3F4F3783268310C0AB
:10187000EB01092F182F0084F185E02D0995892BA4
:10188000E1F68E819F8101969F838E83812F902F19
:10189000DF91CF911F910F910895A0E0B0E0E3E5B3
:1018A000FCE00C94F50AAE014B5F5F4FFA016191C9
:1018B0007191AF0180911C0290911D020E94570509
:1018C000E2E00C94110B60911C0270911D020E94C9
:1018D000150C08950F931F93CF93DF93E0911C0293
:1018E000F0911D02238121FF1BC08C01D0E0C0E0DC
:1018F000F80181918F0160911C0270911D02DB0142
:101900001896ED91FC911997882331F00995892B50
:1019100079F3DFEFCFEFECCF8AE00995892B19F04F
:101920008FEF9FEF02C08D2F9C2FDF91CF911F91E2
:101930000F910895FA01AA27283051F1203181F141
:10194000E8946F936E7F6E5F7F4F8F4F9F4FAF4FC7
:10195000B1E03ED0B4E03CD0670F781F891F9A1FDA
:10196000A11D680F791F8A1F911DA11D6A0F711D8E
:10197000811D911DA11D20D009F468943F912AE09A
:10198000269F11243019305D3193DEF6CF01089582
:10199000462F4770405D4193B3E00FD0C9F7F6CFB3
:1019A000462F4F70405D4A3318F0495D31FD40527B
:1019B000419302D0A9F7EACFB4E0A6959795879511
:1019C00077956795BA95C9F70097610571050895F0
:1019D0009B01AC010A2E069457954795379527959C
:1019E000BA95C9F7620F731F841F951FA01D089534
:0419F000F894FFCF99
:1019F4000000000200000000D400000000003132AA
:101A0400334134353642373839432A30234458FE7B
:101A140000004F1901008F0B0100CFEE000074F19C
:101A24000000BEBB0000B5100100C3BB0000B9023A
:101A340002035403AD03B9043805C505610600C0AB
:101A4400404040403E3D3B372F1F1F1F3F1F1F1F7D
:101A54001F1F3F3F00010203040505050805050596
:0C1A640005050E0F6D61696E0025640021
:00000001FF
